{
  "_format": "hh-sol-artifact-1",
  "contractName": "WaterIntake",
  "sourceName": "contracts/WaterIntake.sol",
  "abi": [
    {
      "inputs": [
        {
          "internalType": "externalEuint32",
          "name": "intakeEuint32",
          "type": "bytes32"
        },
        {
          "internalType": "bytes",
          "name": "inputProof",
          "type": "bytes"
        }
      ],
      "name": "addDailyIntake",
      "outputs": [],
      "stateMutability": "nonpayable",
      "type": "function"
    },
    {
      "inputs": [],
      "name": "getAverageIntake",
      "outputs": [
        {
          "internalType": "euint32",
          "name": "",
          "type": "bytes32"
        }
      ],
      "stateMutability": "view",
      "type": "function"
    },
    {
      "inputs": [],
      "name": "getDayCount",
      "outputs": [
        {
          "internalType": "euint32",
          "name": "",
          "type": "bytes32"
        }
      ],
      "stateMutability": "view",
      "type": "function"
    },
    {
      "inputs": [],
      "name": "getTotalIntake",
      "outputs": [
        {
          "internalType": "euint32",
          "name": "",
          "type": "bytes32"
        }
      ],
      "stateMutability": "view",
      "type": "function"
    },
    {
      "inputs": [],
      "name": "protocolId",
      "outputs": [
        {
          "internalType": "uint256",
          "name": "",
          "type": "uint256"
        }
      ],
      "stateMutability": "pure",
      "type": "function"
    }
  ],
  "bytecode": "0x608060405234801561000f575f5ffd5b5061018a6100ae604080516080810182525f808252602082018190529181018290526060810191909152506040805160808101825273687820221192c5b662b25367f70076a37bc79b6c815273848b0066793bcc60346da1f49049357399b8d595602082015273a02cda4ca3a71d7c46997716f4283aa851c2881291810191909152731364cbbf2cdf5032c47d8226a6f6fbd2afcdacac606082015290565b80517f9e7b61f58c47dc699ac88507c4f5bb9f121c03808c5676a8078fe583e464970080546001600160a01b03199081166001600160a01b039384161790915560208301517f9e7b61f58c47dc699ac88507c4f5bb9f121c03808c5676a8078fe583e46497018054831691841691909117905560408301517f9e7b61f58c47dc699ac88507c4f5bb9f121c03808c5676a8078fe583e46497028054831691841691909117905560608301517f9e7b61f58c47dc699ac88507c4f5bb9f121c03808c5676a8078fe583e46497038054909216921691909117905550565b610630806101975f395ff3fe608060405234801561000f575f5ffd5b5060043610610064575f3560e01c8063b6a7a2b81161004d578063b6a7a2b81461007d578063da1f12ab14610092578063eb60764f1461009a575f5ffd5b806324604da01461006857806360a3fd0a14610068575b5f5ffd5b5f545b60405190815260200160405180910390f35b61009061008b366004610507565b6100a2565b005b61271161006b565b60015461006b565b5f6100e28484848080601f0160208091040260200160405190810160405280939291908181526020018383808284375f9201919091525061014692505050565b90506100ef5f548261015a565b5f9081556100fd6001610188565b905061010b6001548261015a565b6001555f54610119906101a0565b506101255f54336101af565b506101316001546101a0565b5061013e600154336101af565b505050505050565b5f610153838360046101c1565b9392505050565b5f8261016c576101695f610188565b92505b8161017d5761017a5f610188565b91505b61015383835f6102e1565b5f61019a8263ffffffff1660046103c1565b92915050565b5f6101ab823061047e565b5090565b5f6101ba838361047e565b5090919050565b7f9e7b61f58c47dc699ac88507c4f5bb9f121c03808c5676a8078fe583e46497015460405163196d0b9b60e01b81525f917f9e7b61f58c47dc699ac88507c4f5bb9f121c03808c5676a8078fe583e4649700916001600160a01b039091169063196d0b9b9061023a90889033908990899060040161059e565b6020604051808303815f875af1158015610256573d5f5f3e3d5ffd5b505050506040513d601f19601f8201168201806040525081019061027a91906105f8565b8154604051630f8e573b60e21b8152600481018390523360248201529193506001600160a01b031690633e395cec906044015f604051808303815f87803b1580156102c3575f5ffd5b505af11580156102d5573d5f5f3e3d5ffd5b50505050509392505050565b5f5f82156102f45750600160f81b6102f7565b505f5b5f7f9e7b61f58c47dc699ac88507c4f5bb9f121c03808c5676a8078fe583e4649700600181015460405163022f65e760e31b815260048101899052602481018890527fff00000000000000000000000000000000000000000000000000000000000000851660448201529192506001600160a01b03169063117b2f38906064016020604051808303815f875af1158015610393573d5f5f3e3d5ffd5b505050506040513d601f19601f820116820180604052508101906103b791906105f8565b9695505050505050565b7f9e7b61f58c47dc699ac88507c4f5bb9f121c03808c5676a8078fe583e464970154604051639cd07acb60e01b81525f917f9e7b61f58c47dc699ac88507c4f5bb9f121c03808c5676a8078fe583e4649700916001600160a01b0390911690639cd07acb90610436908790879060040161060f565b6020604051808303815f875af1158015610452573d5f5f3e3d5ffd5b505050506040513d601f19601f8201168201806040525081019061047691906105f8565b949350505050565b5f7f9e7b61f58c47dc699ac88507c4f5bb9f121c03808c5676a8078fe583e46497008054604051635ca4b5b160e11b8152600481018690526001600160a01b03858116602483015292935091169063b9496b62906044015f604051808303815f87803b1580156104ec575f5ffd5b505af11580156104fe573d5f5f3e3d5ffd5b50505050505050565b5f5f5f60408486031215610519575f5ffd5b83359250602084013567ffffffffffffffff811115610536575f5ffd5b8401601f81018613610546575f5ffd5b803567ffffffffffffffff81111561055c575f5ffd5b86602082840101111561056d575f5ffd5b939660209190910195509293505050565b6054811061059a57634e487b7160e01b5f52602160045260245ffd5b9052565b8481526001600160a01b0384166020820152608060408201525f8351806080840152806020860160a085015e5f60a0828501015260a0601f19601f8301168401019150506105ef606083018461057e565b95945050505050565b5f60208284031215610608575f5ffd5b5051919050565b82815260408101610153602083018461057e56fea164736f6c634300081b000a",
  "linkReferences": {},
  "deployedLinkReferences": {}
}